{
	"contracts/FundMe.sol": {
		"FundMe": {
			"abi": [
				{
					"inputs": [],
					"name": "fund",
					"outputs": [],
					"stateMutability": "payable",
					"type": "function"
				},
				{
					"inputs": [
						{
							"internalType": "uint256",
							"name": "",
							"type": "uint256"
						}
					],
					"name": "funders",
					"outputs": [
						{
							"internalType": "address",
							"name": "",
							"type": "address"
						}
					],
					"stateMutability": "view",
					"type": "function"
				},
				{
					"inputs": [
						{
							"internalType": "address",
							"name": "funders",
							"type": "address"
						}
					],
					"name": "listOfFunders",
					"outputs": [
						{
							"internalType": "uint256",
							"name": "amount",
							"type": "uint256"
						}
					],
					"stateMutability": "view",
					"type": "function"
				},
				{
					"inputs": [],
					"name": "minimumUsd",
					"outputs": [
						{
							"internalType": "uint256",
							"name": "",
							"type": "uint256"
						}
					],
					"stateMutability": "view",
					"type": "function"
				},
				{
					"inputs": [],
					"name": "withdraw",
					"outputs": [],
					"stateMutability": "nonpayable",
					"type": "function"
				}
			],
			"devdoc": {
				"kind": "dev",
				"methods": {},
				"version": 1
			},
			"evm": {
				"assembly": "    /* \"contracts/FundMe.sol\":127:589  contract FundMe {... */\n  mstore(0x40, 0x80)\n    /* \"contracts/FundMe.sol\":219:223  5e18 */\n  0x4563918244f40000\n    /* \"contracts/FundMe.sol\":191:223  uint256 public minimumUsd = 5e18 */\n  0x00\n  sstore\n    /* \"contracts/FundMe.sol\":127:589  contract FundMe {... */\n  callvalue\n  dup1\n  iszero\n  tag_1\n  jumpi\n  revert(0x00, 0x00)\ntag_1:\n  pop\n  dataSize(sub_0)\n  dup1\n  dataOffset(sub_0)\n  0x00\n  codecopy\n  0x00\n  return\nstop\n\nsub_0: assembly {\n        /* \"contracts/FundMe.sol\":127:589  contract FundMe {... */\n      mstore(0x40, 0x80)\n      jumpi(tag_1, lt(calldatasize, 0x04))\n      shr(0xe0, calldataload(0x00))\n      dup1\n      0x098de820\n      eq\n      tag_2\n      jumpi\n      dup1\n      0x3ccfd60b\n      eq\n      tag_3\n      jumpi\n      dup1\n      0xb60d4288\n      eq\n      tag_4\n      jumpi\n      dup1\n      0xdc0d3dff\n      eq\n      tag_5\n      jumpi\n      dup1\n      0xf2420284\n      eq\n      tag_6\n      jumpi\n    tag_1:\n      revert(0x00, 0x00)\n        /* \"contracts/FundMe.sol\":191:223  uint256 public minimumUsd = 5e18 */\n    tag_2:\n      callvalue\n      dup1\n      iszero\n      tag_7\n      jumpi\n      revert(0x00, 0x00)\n    tag_7:\n      pop\n      tag_8\n      tag_9\n      jump\t// in\n    tag_8:\n      mload(0x40)\n      tag_10\n      swap2\n      swap1\n      tag_11\n      jump\t// in\n    tag_10:\n      mload(0x40)\n      dup1\n      swap2\n      sub\n      swap1\n      return\n        /* \"contracts/FundMe.sol\":557:586  function withdraw() public {} */\n    tag_3:\n      callvalue\n      dup1\n      iszero\n      tag_12\n      jumpi\n      revert(0x00, 0x00)\n    tag_12:\n      pop\n      tag_13\n      tag_14\n      jump\t// in\n    tag_13:\n      stop\n        /* \"contracts/FundMe.sol\":337:549  function fund() public payable {... */\n    tag_4:\n      tag_15\n      tag_16\n      jump\t// in\n    tag_15:\n      stop\n        /* \"contracts/FundMe.sol\":230:254  address[] public funders */\n    tag_5:\n      callvalue\n      dup1\n      iszero\n      tag_17\n      jumpi\n      revert(0x00, 0x00)\n    tag_17:\n      pop\n      tag_18\n      0x04\n      dup1\n      calldatasize\n      sub\n      dup2\n      add\n      swap1\n      tag_19\n      swap2\n      swap1\n      tag_20\n      jump\t// in\n    tag_19:\n      tag_21\n      jump\t// in\n    tag_18:\n      mload(0x40)\n      tag_22\n      swap2\n      swap1\n      tag_23\n      jump\t// in\n    tag_22:\n      mload(0x40)\n      dup1\n      swap2\n      sub\n      swap1\n      return\n        /* \"contracts/FundMe.sol\":261:324  mapping(address funders => uint256 amount) public listOfFunders */\n    tag_6:\n      callvalue\n      dup1\n      iszero\n      tag_24\n      jumpi\n      revert(0x00, 0x00)\n    tag_24:\n      pop\n      tag_25\n      0x04\n      dup1\n      calldatasize\n      sub\n      dup2\n      add\n      swap1\n      tag_26\n      swap2\n      swap1\n      tag_27\n      jump\t// in\n    tag_26:\n      tag_28\n      jump\t// in\n    tag_25:\n      mload(0x40)\n      tag_29\n      swap2\n      swap1\n      tag_11\n      jump\t// in\n    tag_29:\n      mload(0x40)\n      dup1\n      swap2\n      sub\n      swap1\n      return\n        /* \"contracts/FundMe.sol\":191:223  uint256 public minimumUsd = 5e18 */\n    tag_9:\n      sload(0x00)\n      dup2\n      jump\t// out\n        /* \"contracts/FundMe.sol\":557:586  function withdraw() public {} */\n    tag_14:\n      jump\t// out\n        /* \"contracts/FundMe.sol\":337:549  function fund() public payable {... */\n    tag_16:\n        /* \"contracts/FundMe.sol\":420:430  minimumUsd */\n      sload(0x00)\n        /* \"contracts/FundMe.sol\":387:416  msg.value.getConversionRate() */\n      tag_32\n        /* \"contracts/FundMe.sol\":387:396  msg.value */\n      callvalue\n        /* \"contracts/FundMe.sol\":387:414  msg.value.getConversionRate */\n      tag_33\n        /* \"contracts/FundMe.sol\":387:416  msg.value.getConversionRate() */\n      jump\t// in\n    tag_32:\n        /* \"contracts/FundMe.sol\":387:430  msg.value.getConversionRate() >= minimumUsd */\n      lt\n      iszero\n        /* \"contracts/FundMe.sol\":379:457  require(msg.value.getConversionRate() >= minimumUsd, \"Didn't send enough ETH\") */\n      tag_34\n      jumpi\n      mload(0x40)\n      0x08c379a000000000000000000000000000000000000000000000000000000000\n      dup2\n      mstore\n      0x04\n      add\n      tag_35\n      swap1\n      tag_36\n      jump\t// in\n    tag_35:\n      mload(0x40)\n      dup1\n      swap2\n      sub\n      swap1\n      revert\n    tag_34:\n        /* \"contracts/FundMe.sol\":468:475  funders */\n      0x01\n        /* \"contracts/FundMe.sol\":481:491  msg.sender */\n      caller\n        /* \"contracts/FundMe.sol\":468:492  funders.push(msg.sender) */\n      swap1\n      dup1\n      0x01\n      dup2\n      sload\n      add\n      dup1\n      dup3\n      sstore\n      dup1\n      swap2\n      pop\n      pop\n      0x01\n      swap1\n      sub\n      swap1\n      0x00\n      mstore\n      keccak256(0x00, 0x20)\n      add\n      0x00\n      swap1\n      swap2\n      swap1\n      swap2\n      swap1\n      swap2\n      0x0100\n      exp\n      dup2\n      sload\n      dup2\n      0xffffffffffffffffffffffffffffffffffffffff\n      mul\n      not\n      and\n      swap1\n      dup4\n      0xffffffffffffffffffffffffffffffffffffffff\n      and\n      mul\n      or\n      swap1\n      sstore\n      pop\n        /* \"contracts/FundMe.sol\":532:541  msg.value */\n      callvalue\n        /* \"contracts/FundMe.sol\":503:516  listOfFunders */\n      0x02\n        /* \"contracts/FundMe.sol\":503:528  listOfFunders[msg.sender] */\n      0x00\n        /* \"contracts/FundMe.sol\":517:527  msg.sender */\n      caller\n        /* \"contracts/FundMe.sol\":503:528  listOfFunders[msg.sender] */\n      0xffffffffffffffffffffffffffffffffffffffff\n      and\n      0xffffffffffffffffffffffffffffffffffffffff\n      and\n      dup2\n      mstore\n      0x20\n      add\n      swap1\n      dup2\n      mstore\n      0x20\n      add\n      0x00\n      keccak256\n      0x00\n        /* \"contracts/FundMe.sol\":503:541  listOfFunders[msg.sender] += msg.value */\n      dup3\n      dup3\n      sload\n      tag_38\n      swap2\n      swap1\n      tag_39\n      jump\t// in\n    tag_38:\n      swap3\n      pop\n      pop\n      dup2\n      swap1\n      sstore\n      pop\n        /* \"contracts/FundMe.sol\":337:549  function fund() public payable {... */\n      jump\t// out\n        /* \"contracts/FundMe.sol\":230:254  address[] public funders */\n    tag_21:\n      0x01\n      dup2\n      dup2\n      sload\n      dup2\n      lt\n      tag_40\n      jumpi\n      0x00\n      dup1\n      revert\n    tag_40:\n      swap1\n      0x00\n      mstore\n      keccak256(0x00, 0x20)\n      add\n      0x00\n      swap2\n      pop\n      sload\n      swap1\n      0x0100\n      exp\n      swap1\n      div\n      0xffffffffffffffffffffffffffffffffffffffff\n      and\n      dup2\n      jump\t// out\n        /* \"contracts/FundMe.sol\":261:324  mapping(address funders => uint256 amount) public listOfFunders */\n    tag_28:\n      mstore(0x20, 0x02)\n      dup1\n      0x00\n      mstore\n      keccak256(0x00, 0x40)\n      0x00\n      swap2\n      pop\n      swap1\n      pop\n      sload\n      dup2\n      jump\t// out\n        /* \"contracts/PriceConverter.sol\":541:767  function getConversionRate(uint256 _ethAmount) internal view returns(uint256) {... */\n    tag_33:\n        /* \"contracts/PriceConverter.sol\":610:617  uint256 */\n      0x00\n        /* \"contracts/PriceConverter.sol\":630:646  uint256 ethPrice */\n      0x00\n        /* \"contracts/PriceConverter.sol\":649:659  getPrice() */\n      tag_43\n        /* \"contracts/PriceConverter.sol\":649:657  getPrice */\n      tag_44\n        /* \"contracts/PriceConverter.sol\":649:659  getPrice() */\n      jump\t// in\n    tag_43:\n        /* \"contracts/PriceConverter.sol\":630:659  uint256 ethPrice = getPrice() */\n      swap1\n      pop\n        /* \"contracts/PriceConverter.sol\":670:692  uint256 ethAmountInUsd */\n      0x00\n        /* \"contracts/PriceConverter.sol\":721:725  1e18 */\n      0x0de0b6b3a7640000\n        /* \"contracts/PriceConverter.sol\":707:717  _ethAmount */\n      dup5\n        /* \"contracts/PriceConverter.sol\":696:704  ethPrice */\n      dup4\n        /* \"contracts/PriceConverter.sol\":696:717  ethPrice * _ethAmount */\n      tag_45\n      swap2\n      swap1\n      tag_46\n      jump\t// in\n    tag_45:\n        /* \"contracts/PriceConverter.sol\":695:725  (ethPrice * _ethAmount) / 1e18 */\n      tag_47\n      swap2\n      swap1\n      tag_48\n      jump\t// in\n    tag_47:\n        /* \"contracts/PriceConverter.sol\":670:725  uint256 ethAmountInUsd = (ethPrice * _ethAmount) / 1e18 */\n      swap1\n      pop\n        /* \"contracts/PriceConverter.sol\":745:759  ethAmountInUsd */\n      dup1\n        /* \"contracts/PriceConverter.sol\":738:759  return ethAmountInUsd */\n      swap3\n      pop\n      pop\n      pop\n        /* \"contracts/PriceConverter.sol\":541:767  function getConversionRate(uint256 _ethAmount) internal view returns(uint256) {... */\n      swap2\n      swap1\n      pop\n      jump\t// out\n        /* \"contracts/PriceConverter.sol\":208:533  function getPrice() internal view returns(uint256) {... */\n    tag_44:\n        /* \"contracts/PriceConverter.sol\":250:257  uint256 */\n      0x00\n        /* \"contracts/PriceConverter.sol\":325:356  AggregatorV3Interface priceFeed */\n      0x00\n        /* \"contracts/PriceConverter.sol\":381:423  0x72AFAECF99C9d9C8215fF44C77B94B99C28741e8 */\n      0x72afaecf99c9d9c8215ff44c77b94b99c28741e8\n        /* \"contracts/PriceConverter.sol\":325:424  AggregatorV3Interface priceFeed = AggregatorV3Interface(0x72AFAECF99C9d9C8215fF44C77B94B99C28741e8) */\n      swap1\n      pop\n        /* \"contracts/PriceConverter.sol\":438:450  int256 price */\n      0x00\n        /* \"contracts/PriceConverter.sol\":457:466  priceFeed */\n      dup2\n        /* \"contracts/PriceConverter.sol\":457:482  priceFeed.latestRoundData */\n      0xffffffffffffffffffffffffffffffffffffffff\n      and\n      0xfeaf968c\n        /* \"contracts/PriceConverter.sol\":457:484  priceFeed.latestRoundData() */\n      mload(0x40)\n      dup2\n      0xffffffff\n      and\n      0xe0\n      shl\n      dup2\n      mstore\n      0x04\n      add\n      0xa0\n      mload(0x40)\n      dup1\n      dup4\n      sub\n      dup2\n      dup7\n      gas\n      staticcall\n      iszero\n      dup1\n      iszero\n      tag_51\n      jumpi\n      returndatacopy(0x00, 0x00, returndatasize)\n      revert(0x00, returndatasize)\n    tag_51:\n      pop\n      pop\n      pop\n      pop\n      mload(0x40)\n      returndatasize\n      not(0x1f)\n      0x1f\n      dup3\n      add\n      and\n      dup3\n      add\n      dup1\n      0x40\n      mstore\n      pop\n      dup2\n      add\n      swap1\n      tag_52\n      swap2\n      swap1\n      tag_53\n      jump\t// in\n    tag_52:\n        /* \"contracts/PriceConverter.sol\":435:484  (, int256 price,,,) = priceFeed.latestRoundData() */\n      pop\n      pop\n      pop\n      swap2\n      pop\n      pop\n        /* \"contracts/PriceConverter.sol\":521:525  1e10 */\n      0x02540be400\n        /* \"contracts/PriceConverter.sol\":512:517  price */\n      dup2\n        /* \"contracts/PriceConverter.sol\":504:525  uint256(price) * 1e10 */\n      tag_54\n      swap2\n      swap1\n      tag_46\n      jump\t// in\n    tag_54:\n        /* \"contracts/PriceConverter.sol\":497:525  return uint256(price) * 1e10 */\n      swap3\n      pop\n      pop\n      pop\n        /* \"contracts/PriceConverter.sol\":208:533  function getPrice() internal view returns(uint256) {... */\n      swap1\n      jump\t// out\n        /* \"#utility.yul\":7:84   */\n    tag_55:\n        /* \"#utility.yul\":44:51   */\n      0x00\n        /* \"#utility.yul\":73:78   */\n      dup2\n        /* \"#utility.yul\":62:78   */\n      swap1\n      pop\n        /* \"#utility.yul\":7:84   */\n      swap2\n      swap1\n      pop\n      jump\t// out\n        /* \"#utility.yul\":90:208   */\n    tag_56:\n        /* \"#utility.yul\":177:201   */\n      tag_82\n        /* \"#utility.yul\":195:200   */\n      dup2\n        /* \"#utility.yul\":177:201   */\n      tag_55\n      jump\t// in\n    tag_82:\n        /* \"#utility.yul\":172:175   */\n      dup3\n        /* \"#utility.yul\":165:202   */\n      mstore\n        /* \"#utility.yul\":90:208   */\n      pop\n      pop\n      jump\t// out\n        /* \"#utility.yul\":214:436   */\n    tag_11:\n        /* \"#utility.yul\":307:311   */\n      0x00\n        /* \"#utility.yul\":345:347   */\n      0x20\n        /* \"#utility.yul\":334:343   */\n      dup3\n        /* \"#utility.yul\":330:348   */\n      add\n        /* \"#utility.yul\":322:348   */\n      swap1\n      pop\n        /* \"#utility.yul\":358:429   */\n      tag_84\n        /* \"#utility.yul\":426:427   */\n      0x00\n        /* \"#utility.yul\":415:424   */\n      dup4\n        /* \"#utility.yul\":411:428   */\n      add\n        /* \"#utility.yul\":402:408   */\n      dup5\n        /* \"#utility.yul\":358:429   */\n      tag_56\n      jump\t// in\n    tag_84:\n        /* \"#utility.yul\":214:436   */\n      swap3\n      swap2\n      pop\n      pop\n      jump\t// out\n        /* \"#utility.yul\":523:640   */\n    tag_58:\n        /* \"#utility.yul\":632:633   */\n      0x00\n        /* \"#utility.yul\":629:630   */\n      0x00\n        /* \"#utility.yul\":622:634   */\n      revert\n        /* \"#utility.yul\":769:891   */\n    tag_60:\n        /* \"#utility.yul\":842:866   */\n      tag_89\n        /* \"#utility.yul\":860:865   */\n      dup2\n        /* \"#utility.yul\":842:866   */\n      tag_55\n      jump\t// in\n    tag_89:\n        /* \"#utility.yul\":835:840   */\n      dup2\n        /* \"#utility.yul\":832:867   */\n      eq\n        /* \"#utility.yul\":822:885   */\n      tag_90\n      jumpi\n        /* \"#utility.yul\":881:882   */\n      0x00\n        /* \"#utility.yul\":878:879   */\n      0x00\n        /* \"#utility.yul\":871:883   */\n      revert\n        /* \"#utility.yul\":822:885   */\n    tag_90:\n        /* \"#utility.yul\":769:891   */\n      pop\n      jump\t// out\n        /* \"#utility.yul\":897:1036   */\n    tag_61:\n        /* \"#utility.yul\":943:948   */\n      0x00\n        /* \"#utility.yul\":981:987   */\n      dup2\n        /* \"#utility.yul\":968:988   */\n      calldataload\n        /* \"#utility.yul\":959:988   */\n      swap1\n      pop\n        /* \"#utility.yul\":997:1030   */\n      tag_92\n        /* \"#utility.yul\":1024:1029   */\n      dup2\n        /* \"#utility.yul\":997:1030   */\n      tag_60\n      jump\t// in\n    tag_92:\n        /* \"#utility.yul\":897:1036   */\n      swap3\n      swap2\n      pop\n      pop\n      jump\t// out\n        /* \"#utility.yul\":1042:1371   */\n    tag_20:\n        /* \"#utility.yul\":1101:1107   */\n      0x00\n        /* \"#utility.yul\":1150:1152   */\n      0x20\n        /* \"#utility.yul\":1138:1147   */\n      dup3\n        /* \"#utility.yul\":1129:1136   */\n      dup5\n        /* \"#utility.yul\":1125:1148   */\n      sub\n        /* \"#utility.yul\":1121:1153   */\n      slt\n        /* \"#utility.yul\":1118:1237   */\n      iszero\n      tag_94\n      jumpi\n        /* \"#utility.yul\":1156:1235   */\n      tag_95\n      tag_58\n      jump\t// in\n    tag_95:\n        /* \"#utility.yul\":1118:1237   */\n    tag_94:\n        /* \"#utility.yul\":1276:1277   */\n      0x00\n        /* \"#utility.yul\":1301:1354   */\n      tag_96\n        /* \"#utility.yul\":1346:1353   */\n      dup5\n        /* \"#utility.yul\":1337:1343   */\n      dup3\n        /* \"#utility.yul\":1326:1335   */\n      dup6\n        /* \"#utility.yul\":1322:1344   */\n      add\n        /* \"#utility.yul\":1301:1354   */\n      tag_61\n      jump\t// in\n    tag_96:\n        /* \"#utility.yul\":1291:1354   */\n      swap2\n      pop\n        /* \"#utility.yul\":1247:1364   */\n      pop\n        /* \"#utility.yul\":1042:1371   */\n      swap3\n      swap2\n      pop\n      pop\n      jump\t// out\n        /* \"#utility.yul\":1377:1503   */\n    tag_62:\n        /* \"#utility.yul\":1414:1421   */\n      0x00\n        /* \"#utility.yul\":1454:1496   */\n      0xffffffffffffffffffffffffffffffffffffffff\n        /* \"#utility.yul\":1447:1452   */\n      dup3\n        /* \"#utility.yul\":1443:1497   */\n      and\n        /* \"#utility.yul\":1432:1497   */\n      swap1\n      pop\n        /* \"#utility.yul\":1377:1503   */\n      swap2\n      swap1\n      pop\n      jump\t// out\n        /* \"#utility.yul\":1509:1605   */\n    tag_63:\n        /* \"#utility.yul\":1546:1553   */\n      0x00\n        /* \"#utility.yul\":1575:1599   */\n      tag_99\n        /* \"#utility.yul\":1593:1598   */\n      dup3\n        /* \"#utility.yul\":1575:1599   */\n      tag_62\n      jump\t// in\n    tag_99:\n        /* \"#utility.yul\":1564:1599   */\n      swap1\n      pop\n        /* \"#utility.yul\":1509:1605   */\n      swap2\n      swap1\n      pop\n      jump\t// out\n        /* \"#utility.yul\":1611:1729   */\n    tag_64:\n        /* \"#utility.yul\":1698:1722   */\n      tag_101\n        /* \"#utility.yul\":1716:1721   */\n      dup2\n        /* \"#utility.yul\":1698:1722   */\n      tag_63\n      jump\t// in\n    tag_101:\n        /* \"#utility.yul\":1693:1696   */\n      dup3\n        /* \"#utility.yul\":1686:1723   */\n      mstore\n        /* \"#utility.yul\":1611:1729   */\n      pop\n      pop\n      jump\t// out\n        /* \"#utility.yul\":1735:1957   */\n    tag_23:\n        /* \"#utility.yul\":1828:1832   */\n      0x00\n        /* \"#utility.yul\":1866:1868   */\n      0x20\n        /* \"#utility.yul\":1855:1864   */\n      dup3\n        /* \"#utility.yul\":1851:1869   */\n      add\n        /* \"#utility.yul\":1843:1869   */\n      swap1\n      pop\n        /* \"#utility.yul\":1879:1950   */\n      tag_103\n        /* \"#utility.yul\":1947:1948   */\n      0x00\n        /* \"#utility.yul\":1936:1945   */\n      dup4\n        /* \"#utility.yul\":1932:1949   */\n      add\n        /* \"#utility.yul\":1923:1929   */\n      dup5\n        /* \"#utility.yul\":1879:1950   */\n      tag_64\n      jump\t// in\n    tag_103:\n        /* \"#utility.yul\":1735:1957   */\n      swap3\n      swap2\n      pop\n      pop\n      jump\t// out\n        /* \"#utility.yul\":1963:2085   */\n    tag_65:\n        /* \"#utility.yul\":2036:2060   */\n      tag_105\n        /* \"#utility.yul\":2054:2059   */\n      dup2\n        /* \"#utility.yul\":2036:2060   */\n      tag_63\n      jump\t// in\n    tag_105:\n        /* \"#utility.yul\":2029:2034   */\n      dup2\n        /* \"#utility.yul\":2026:2061   */\n      eq\n        /* \"#utility.yul\":2016:2079   */\n      tag_106\n      jumpi\n        /* \"#utility.yul\":2075:2076   */\n      0x00\n        /* \"#utility.yul\":2072:2073   */\n      0x00\n        /* \"#utility.yul\":2065:2077   */\n      revert\n        /* \"#utility.yul\":2016:2079   */\n    tag_106:\n        /* \"#utility.yul\":1963:2085   */\n      pop\n      jump\t// out\n        /* \"#utility.yul\":2091:2230   */\n    tag_66:\n        /* \"#utility.yul\":2137:2142   */\n      0x00\n        /* \"#utility.yul\":2175:2181   */\n      dup2\n        /* \"#utility.yul\":2162:2182   */\n      calldataload\n        /* \"#utility.yul\":2153:2182   */\n      swap1\n      pop\n        /* \"#utility.yul\":2191:2224   */\n      tag_108\n        /* \"#utility.yul\":2218:2223   */\n      dup2\n        /* \"#utility.yul\":2191:2224   */\n      tag_65\n      jump\t// in\n    tag_108:\n        /* \"#utility.yul\":2091:2230   */\n      swap3\n      swap2\n      pop\n      pop\n      jump\t// out\n        /* \"#utility.yul\":2236:2565   */\n    tag_27:\n        /* \"#utility.yul\":2295:2301   */\n      0x00\n        /* \"#utility.yul\":2344:2346   */\n      0x20\n        /* \"#utility.yul\":2332:2341   */\n      dup3\n        /* \"#utility.yul\":2323:2330   */\n      dup5\n        /* \"#utility.yul\":2319:2342   */\n      sub\n        /* \"#utility.yul\":2315:2347   */\n      slt\n        /* \"#utility.yul\":2312:2431   */\n      iszero\n      tag_110\n      jumpi\n        /* \"#utility.yul\":2350:2429   */\n      tag_111\n      tag_58\n      jump\t// in\n    tag_111:\n        /* \"#utility.yul\":2312:2431   */\n    tag_110:\n        /* \"#utility.yul\":2470:2471   */\n      0x00\n        /* \"#utility.yul\":2495:2548   */\n      tag_112\n        /* \"#utility.yul\":2540:2547   */\n      dup5\n        /* \"#utility.yul\":2531:2537   */\n      dup3\n        /* \"#utility.yul\":2520:2529   */\n      dup6\n        /* \"#utility.yul\":2516:2538   */\n      add\n        /* \"#utility.yul\":2495:2548   */\n      tag_66\n      jump\t// in\n    tag_112:\n        /* \"#utility.yul\":2485:2548   */\n      swap2\n      pop\n        /* \"#utility.yul\":2441:2558   */\n      pop\n        /* \"#utility.yul\":2236:2565   */\n      swap3\n      swap2\n      pop\n      pop\n      jump\t// out\n        /* \"#utility.yul\":2571:2740   */\n    tag_67:\n        /* \"#utility.yul\":2655:2666   */\n      0x00\n        /* \"#utility.yul\":2689:2695   */\n      dup3\n        /* \"#utility.yul\":2684:2687   */\n      dup3\n        /* \"#utility.yul\":2677:2696   */\n      mstore\n        /* \"#utility.yul\":2729:2733   */\n      0x20\n        /* \"#utility.yul\":2724:2727   */\n      dup3\n        /* \"#utility.yul\":2720:2734   */\n      add\n        /* \"#utility.yul\":2705:2734   */\n      swap1\n      pop\n        /* \"#utility.yul\":2571:2740   */\n      swap3\n      swap2\n      pop\n      pop\n      jump\t// out\n        /* \"#utility.yul\":2746:2918   */\n    tag_68:\n        /* \"#utility.yul\":2886:2910   */\n      0x4469646e27742073656e6420656e6f7567682045544800000000000000000000\n        /* \"#utility.yul\":2882:2883   */\n      0x00\n        /* \"#utility.yul\":2874:2880   */\n      dup3\n        /* \"#utility.yul\":2870:2884   */\n      add\n        /* \"#utility.yul\":2863:2911   */\n      mstore\n        /* \"#utility.yul\":2746:2918   */\n      pop\n      jump\t// out\n        /* \"#utility.yul\":2924:3290   */\n    tag_69:\n        /* \"#utility.yul\":3066:3069   */\n      0x00\n        /* \"#utility.yul\":3087:3154   */\n      tag_116\n        /* \"#utility.yul\":3151:3153   */\n      0x16\n        /* \"#utility.yul\":3146:3149   */\n      dup4\n        /* \"#utility.yul\":3087:3154   */\n      tag_67\n      jump\t// in\n    tag_116:\n        /* \"#utility.yul\":3080:3154   */\n      swap2\n      pop\n        /* \"#utility.yul\":3163:3256   */\n      tag_117\n        /* \"#utility.yul\":3252:3255   */\n      dup3\n        /* \"#utility.yul\":3163:3256   */\n      tag_68\n      jump\t// in\n    tag_117:\n        /* \"#utility.yul\":3281:3283   */\n      0x20\n        /* \"#utility.yul\":3276:3279   */\n      dup3\n        /* \"#utility.yul\":3272:3284   */\n      add\n        /* \"#utility.yul\":3265:3284   */\n      swap1\n      pop\n        /* \"#utility.yul\":2924:3290   */\n      swap2\n      swap1\n      pop\n      jump\t// out\n        /* \"#utility.yul\":3296:3715   */\n    tag_36:\n        /* \"#utility.yul\":3462:3466   */\n      0x00\n        /* \"#utility.yul\":3500:3502   */\n      0x20\n        /* \"#utility.yul\":3489:3498   */\n      dup3\n        /* \"#utility.yul\":3485:3503   */\n      add\n        /* \"#utility.yul\":3477:3503   */\n      swap1\n      pop\n        /* \"#utility.yul\":3549:3558   */\n      dup2\n        /* \"#utility.yul\":3543:3547   */\n      dup2\n        /* \"#utility.yul\":3539:3559   */\n      sub\n        /* \"#utility.yul\":3535:3536   */\n      0x00\n        /* \"#utility.yul\":3524:3533   */\n      dup4\n        /* \"#utility.yul\":3520:3537   */\n      add\n        /* \"#utility.yul\":3513:3560   */\n      mstore\n        /* \"#utility.yul\":3577:3708   */\n      tag_119\n        /* \"#utility.yul\":3703:3707   */\n      dup2\n        /* \"#utility.yul\":3577:3708   */\n      tag_69\n      jump\t// in\n    tag_119:\n        /* \"#utility.yul\":3569:3708   */\n      swap1\n      pop\n        /* \"#utility.yul\":3296:3715   */\n      swap2\n      swap1\n      pop\n      jump\t// out\n        /* \"#utility.yul\":3721:3901   */\n    tag_70:\n        /* \"#utility.yul\":3769:3846   */\n      0x4e487b7100000000000000000000000000000000000000000000000000000000\n        /* \"#utility.yul\":3766:3767   */\n      0x00\n        /* \"#utility.yul\":3759:3847   */\n      mstore\n        /* \"#utility.yul\":3866:3870   */\n      0x11\n        /* \"#utility.yul\":3863:3864   */\n      0x04\n        /* \"#utility.yul\":3856:3871   */\n      mstore\n        /* \"#utility.yul\":3890:3894   */\n      0x24\n        /* \"#utility.yul\":3887:3888   */\n      0x00\n        /* \"#utility.yul\":3880:3895   */\n      revert\n        /* \"#utility.yul\":3907:4098   */\n    tag_39:\n        /* \"#utility.yul\":3947:3950   */\n      0x00\n        /* \"#utility.yul\":3966:3986   */\n      tag_122\n        /* \"#utility.yul\":3984:3985   */\n      dup3\n        /* \"#utility.yul\":3966:3986   */\n      tag_55\n      jump\t// in\n    tag_122:\n        /* \"#utility.yul\":3961:3986   */\n      swap2\n      pop\n        /* \"#utility.yul\":4000:4020   */\n      tag_123\n        /* \"#utility.yul\":4018:4019   */\n      dup4\n        /* \"#utility.yul\":4000:4020   */\n      tag_55\n      jump\t// in\n    tag_123:\n        /* \"#utility.yul\":3995:4020   */\n      swap3\n      pop\n        /* \"#utility.yul\":4043:4044   */\n      dup3\n        /* \"#utility.yul\":4040:4041   */\n      dup3\n        /* \"#utility.yul\":4036:4045   */\n      add\n        /* \"#utility.yul\":4029:4045   */\n      swap1\n      pop\n        /* \"#utility.yul\":4064:4067   */\n      dup1\n        /* \"#utility.yul\":4061:4062   */\n      dup3\n        /* \"#utility.yul\":4058:4068   */\n      gt\n        /* \"#utility.yul\":4055:4091   */\n      iszero\n      tag_124\n      jumpi\n        /* \"#utility.yul\":4071:4089   */\n      tag_125\n      tag_70\n      jump\t// in\n    tag_125:\n        /* \"#utility.yul\":4055:4091   */\n    tag_124:\n        /* \"#utility.yul\":3907:4098   */\n      swap3\n      swap2\n      pop\n      pop\n      jump\t// out\n        /* \"#utility.yul\":4104:4514   */\n    tag_46:\n        /* \"#utility.yul\":4144:4151   */\n      0x00\n        /* \"#utility.yul\":4167:4187   */\n      tag_127\n        /* \"#utility.yul\":4185:4186   */\n      dup3\n        /* \"#utility.yul\":4167:4187   */\n      tag_55\n      jump\t// in\n    tag_127:\n        /* \"#utility.yul\":4162:4187   */\n      swap2\n      pop\n        /* \"#utility.yul\":4201:4221   */\n      tag_128\n        /* \"#utility.yul\":4219:4220   */\n      dup4\n        /* \"#utility.yul\":4201:4221   */\n      tag_55\n      jump\t// in\n    tag_128:\n        /* \"#utility.yul\":4196:4221   */\n      swap3\n      pop\n        /* \"#utility.yul\":4256:4257   */\n      dup3\n        /* \"#utility.yul\":4253:4254   */\n      dup3\n        /* \"#utility.yul\":4249:4258   */\n      mul\n        /* \"#utility.yul\":4278:4308   */\n      tag_129\n        /* \"#utility.yul\":4296:4307   */\n      dup2\n        /* \"#utility.yul\":4278:4308   */\n      tag_55\n      jump\t// in\n    tag_129:\n        /* \"#utility.yul\":4267:4308   */\n      swap2\n      pop\n        /* \"#utility.yul\":4457:4458   */\n      dup3\n        /* \"#utility.yul\":4448:4455   */\n      dup3\n        /* \"#utility.yul\":4444:4459   */\n      div\n        /* \"#utility.yul\":4441:4442   */\n      dup5\n        /* \"#utility.yul\":4438:4460   */\n      eq\n        /* \"#utility.yul\":4418:4419   */\n      dup4\n        /* \"#utility.yul\":4411:4420   */\n      iszero\n        /* \"#utility.yul\":4391:4474   */\n      or\n        /* \"#utility.yul\":4368:4507   */\n      tag_130\n      jumpi\n        /* \"#utility.yul\":4487:4505   */\n      tag_131\n      tag_70\n      jump\t// in\n    tag_131:\n        /* \"#utility.yul\":4368:4507   */\n    tag_130:\n        /* \"#utility.yul\":4152:4514   */\n      pop\n        /* \"#utility.yul\":4104:4514   */\n      swap3\n      swap2\n      pop\n      pop\n      jump\t// out\n        /* \"#utility.yul\":4520:4700   */\n    tag_71:\n        /* \"#utility.yul\":4568:4645   */\n      0x4e487b7100000000000000000000000000000000000000000000000000000000\n        /* \"#utility.yul\":4565:4566   */\n      0x00\n        /* \"#utility.yul\":4558:4646   */\n      mstore\n        /* \"#utility.yul\":4665:4669   */\n      0x12\n        /* \"#utility.yul\":4662:4663   */\n      0x04\n        /* \"#utility.yul\":4655:4670   */\n      mstore\n        /* \"#utility.yul\":4689:4693   */\n      0x24\n        /* \"#utility.yul\":4686:4687   */\n      0x00\n        /* \"#utility.yul\":4679:4694   */\n      revert\n        /* \"#utility.yul\":4706:4891   */\n    tag_48:\n        /* \"#utility.yul\":4746:4747   */\n      0x00\n        /* \"#utility.yul\":4763:4783   */\n      tag_134\n        /* \"#utility.yul\":4781:4782   */\n      dup3\n        /* \"#utility.yul\":4763:4783   */\n      tag_55\n      jump\t// in\n    tag_134:\n        /* \"#utility.yul\":4758:4783   */\n      swap2\n      pop\n        /* \"#utility.yul\":4797:4817   */\n      tag_135\n        /* \"#utility.yul\":4815:4816   */\n      dup4\n        /* \"#utility.yul\":4797:4817   */\n      tag_55\n      jump\t// in\n    tag_135:\n        /* \"#utility.yul\":4792:4817   */\n      swap3\n      pop\n        /* \"#utility.yul\":4836:4837   */\n      dup3\n        /* \"#utility.yul\":4826:4861   */\n      tag_136\n      jumpi\n        /* \"#utility.yul\":4841:4859   */\n      tag_137\n      tag_71\n      jump\t// in\n    tag_137:\n        /* \"#utility.yul\":4826:4861   */\n    tag_136:\n        /* \"#utility.yul\":4883:4884   */\n      dup3\n        /* \"#utility.yul\":4880:4881   */\n      dup3\n        /* \"#utility.yul\":4876:4885   */\n      div\n        /* \"#utility.yul\":4871:4885   */\n      swap1\n      pop\n        /* \"#utility.yul\":4706:4891   */\n      swap3\n      swap2\n      pop\n      pop\n      jump\t// out\n        /* \"#utility.yul\":4897:5002   */\n    tag_72:\n        /* \"#utility.yul\":4933:4940   */\n      0x00\n        /* \"#utility.yul\":4973:4995   */\n      0xffffffffffffffffffff\n        /* \"#utility.yul\":4966:4971   */\n      dup3\n        /* \"#utility.yul\":4962:4996   */\n      and\n        /* \"#utility.yul\":4951:4996   */\n      swap1\n      pop\n        /* \"#utility.yul\":4897:5002   */\n      swap2\n      swap1\n      pop\n      jump\t// out\n        /* \"#utility.yul\":5008:5128   */\n    tag_73:\n        /* \"#utility.yul\":5080:5103   */\n      tag_140\n        /* \"#utility.yul\":5097:5102   */\n      dup2\n        /* \"#utility.yul\":5080:5103   */\n      tag_72\n      jump\t// in\n    tag_140:\n        /* \"#utility.yul\":5073:5078   */\n      dup2\n        /* \"#utility.yul\":5070:5104   */\n      eq\n        /* \"#utility.yul\":5060:5122   */\n      tag_141\n      jumpi\n        /* \"#utility.yul\":5118:5119   */\n      0x00\n        /* \"#utility.yul\":5115:5116   */\n      0x00\n        /* \"#utility.yul\":5108:5120   */\n      revert\n        /* \"#utility.yul\":5060:5122   */\n    tag_141:\n        /* \"#utility.yul\":5008:5128   */\n      pop\n      jump\t// out\n        /* \"#utility.yul\":5134:5275   */\n    tag_74:\n        /* \"#utility.yul\":5190:5195   */\n      0x00\n        /* \"#utility.yul\":5221:5227   */\n      dup2\n        /* \"#utility.yul\":5215:5228   */\n      mload\n        /* \"#utility.yul\":5206:5228   */\n      swap1\n      pop\n        /* \"#utility.yul\":5237:5269   */\n      tag_143\n        /* \"#utility.yul\":5263:5268   */\n      dup2\n        /* \"#utility.yul\":5237:5269   */\n      tag_73\n      jump\t// in\n    tag_143:\n        /* \"#utility.yul\":5134:5275   */\n      swap3\n      swap2\n      pop\n      pop\n      jump\t// out\n        /* \"#utility.yul\":5281:5357   */\n    tag_75:\n        /* \"#utility.yul\":5317:5324   */\n      0x00\n        /* \"#utility.yul\":5346:5351   */\n      dup2\n        /* \"#utility.yul\":5335:5351   */\n      swap1\n      pop\n        /* \"#utility.yul\":5281:5357   */\n      swap2\n      swap1\n      pop\n      jump\t// out\n        /* \"#utility.yul\":5363:5483   */\n    tag_76:\n        /* \"#utility.yul\":5435:5458   */\n      tag_146\n        /* \"#utility.yul\":5452:5457   */\n      dup2\n        /* \"#utility.yul\":5435:5458   */\n      tag_75\n      jump\t// in\n    tag_146:\n        /* \"#utility.yul\":5428:5433   */\n      dup2\n        /* \"#utility.yul\":5425:5459   */\n      eq\n        /* \"#utility.yul\":5415:5477   */\n      tag_147\n      jumpi\n        /* \"#utility.yul\":5473:5474   */\n      0x00\n        /* \"#utility.yul\":5470:5471   */\n      0x00\n        /* \"#utility.yul\":5463:5475   */\n      revert\n        /* \"#utility.yul\":5415:5477   */\n    tag_147:\n        /* \"#utility.yul\":5363:5483   */\n      pop\n      jump\t// out\n        /* \"#utility.yul\":5489:5630   */\n    tag_77:\n        /* \"#utility.yul\":5545:5550   */\n      0x00\n        /* \"#utility.yul\":5576:5582   */\n      dup2\n        /* \"#utility.yul\":5570:5583   */\n      mload\n        /* \"#utility.yul\":5561:5583   */\n      swap1\n      pop\n        /* \"#utility.yul\":5592:5624   */\n      tag_149\n        /* \"#utility.yul\":5618:5623   */\n      dup2\n        /* \"#utility.yul\":5592:5624   */\n      tag_76\n      jump\t// in\n    tag_149:\n        /* \"#utility.yul\":5489:5630   */\n      swap3\n      swap2\n      pop\n      pop\n      jump\t// out\n        /* \"#utility.yul\":5636:5779   */\n    tag_78:\n        /* \"#utility.yul\":5693:5698   */\n      0x00\n        /* \"#utility.yul\":5724:5730   */\n      dup2\n        /* \"#utility.yul\":5718:5731   */\n      mload\n        /* \"#utility.yul\":5709:5731   */\n      swap1\n      pop\n        /* \"#utility.yul\":5740:5773   */\n      tag_151\n        /* \"#utility.yul\":5767:5772   */\n      dup2\n        /* \"#utility.yul\":5740:5773   */\n      tag_60\n      jump\t// in\n    tag_151:\n        /* \"#utility.yul\":5636:5779   */\n      swap3\n      swap2\n      pop\n      pop\n      jump\t// out\n        /* \"#utility.yul\":5785:6756   */\n    tag_53:\n        /* \"#utility.yul\":5888:5894   */\n      0x00\n        /* \"#utility.yul\":5896:5902   */\n      0x00\n        /* \"#utility.yul\":5904:5910   */\n      0x00\n        /* \"#utility.yul\":5912:5918   */\n      0x00\n        /* \"#utility.yul\":5920:5926   */\n      0x00\n        /* \"#utility.yul\":5969:5972   */\n      0xa0\n        /* \"#utility.yul\":5957:5966   */\n      dup7\n        /* \"#utility.yul\":5948:5955   */\n      dup9\n        /* \"#utility.yul\":5944:5967   */\n      sub\n        /* \"#utility.yul\":5940:5973   */\n      slt\n        /* \"#utility.yul\":5937:6057   */\n      iszero\n      tag_153\n      jumpi\n        /* \"#utility.yul\":5976:6055   */\n      tag_154\n      tag_58\n      jump\t// in\n    tag_154:\n        /* \"#utility.yul\":5937:6057   */\n    tag_153:\n        /* \"#utility.yul\":6096:6097   */\n      0x00\n        /* \"#utility.yul\":6121:6184   */\n      tag_155\n        /* \"#utility.yul\":6176:6183   */\n      dup9\n        /* \"#utility.yul\":6167:6173   */\n      dup3\n        /* \"#utility.yul\":6156:6165   */\n      dup10\n        /* \"#utility.yul\":6152:6174   */\n      add\n        /* \"#utility.yul\":6121:6184   */\n      tag_74\n      jump\t// in\n    tag_155:\n        /* \"#utility.yul\":6111:6184   */\n      swap6\n      pop\n        /* \"#utility.yul\":6067:6194   */\n      pop\n        /* \"#utility.yul\":6233:6235   */\n      0x20\n        /* \"#utility.yul\":6259:6322   */\n      tag_156\n        /* \"#utility.yul\":6314:6321   */\n      dup9\n        /* \"#utility.yul\":6305:6311   */\n      dup3\n        /* \"#utility.yul\":6294:6303   */\n      dup10\n        /* \"#utility.yul\":6290:6312   */\n      add\n        /* \"#utility.yul\":6259:6322   */\n      tag_77\n      jump\t// in\n    tag_156:\n        /* \"#utility.yul\":6249:6322   */\n      swap5\n      pop\n        /* \"#utility.yul\":6204:6332   */\n      pop\n        /* \"#utility.yul\":6371:6373   */\n      0x40\n        /* \"#utility.yul\":6397:6461   */\n      tag_157\n        /* \"#utility.yul\":6453:6460   */\n      dup9\n        /* \"#utility.yul\":6444:6450   */\n      dup3\n        /* \"#utility.yul\":6433:6442   */\n      dup10\n        /* \"#utility.yul\":6429:6451   */\n      add\n        /* \"#utility.yul\":6397:6461   */\n      tag_78\n      jump\t// in\n    tag_157:\n        /* \"#utility.yul\":6387:6461   */\n      swap4\n      pop\n        /* \"#utility.yul\":6342:6471   */\n      pop\n        /* \"#utility.yul\":6510:6512   */\n      0x60\n        /* \"#utility.yul\":6536:6600   */\n      tag_158\n        /* \"#utility.yul\":6592:6599   */\n      dup9\n        /* \"#utility.yul\":6583:6589   */\n      dup3\n        /* \"#utility.yul\":6572:6581   */\n      dup10\n        /* \"#utility.yul\":6568:6590   */\n      add\n        /* \"#utility.yul\":6536:6600   */\n      tag_78\n      jump\t// in\n    tag_158:\n        /* \"#utility.yul\":6526:6600   */\n      swap3\n      pop\n        /* \"#utility.yul\":6481:6610   */\n      pop\n        /* \"#utility.yul\":6649:6652   */\n      0x80\n        /* \"#utility.yul\":6676:6739   */\n      tag_159\n        /* \"#utility.yul\":6731:6738   */\n      dup9\n        /* \"#utility.yul\":6722:6728   */\n      dup3\n        /* \"#utility.yul\":6711:6720   */\n      dup10\n        /* \"#utility.yul\":6707:6729   */\n      add\n        /* \"#utility.yul\":6676:6739   */\n      tag_74\n      jump\t// in\n    tag_159:\n        /* \"#utility.yul\":6666:6739   */\n      swap2\n      pop\n        /* \"#utility.yul\":6620:6749   */\n      pop\n        /* \"#utility.yul\":5785:6756   */\n      swap3\n      swap6\n      pop\n      swap3\n      swap6\n      swap1\n      swap4\n      pop\n      jump\t// out\n\n    auxdata: 0xa2646970667358221220b82b66e4bfe56bee491fe0fb974381c978f42443ac1bf9cd047d13fd715ceccc64736f6c634300081f0033\n}\n",
				"bytecode": {
					"linkReferences": {},
					"object": "6080604052674563918244f400005f553480156019575f5ffd5b50610724806100275f395ff3fe608060405260043610610049575f3560e01c8063098de8201461004d5780633ccfd60b14610077578063b60d42881461008d578063dc0d3dff14610097578063f2420284146100d3575b5f5ffd5b348015610058575f5ffd5b5061006161010f565b60405161006e919061035c565b60405180910390f35b348015610082575f5ffd5b5061008b610114565b005b610095610116565b005b3480156100a2575f5ffd5b506100bd60048036038101906100b891906103a3565b610217565b6040516100ca919061040d565b60405180910390f35b3480156100de575f5ffd5b506100f960048036038101906100f49190610450565b610252565b604051610106919061035c565b60405180910390f35b5f5481565b565b5f5461012134610267565b1015610162576040517f08c379a0000000000000000000000000000000000000000000000000000000008152600401610159906104d5565b60405180910390fd5b600133908060018154018082558091505060019003905f5260205f20015f9091909190916101000a81548173ffffffffffffffffffffffffffffffffffffffff021916908373ffffffffffffffffffffffffffffffffffffffff1602179055503460025f3373ffffffffffffffffffffffffffffffffffffffff1673ffffffffffffffffffffffffffffffffffffffff1681526020019081526020015f205f82825461020e9190610520565b92505081905550565b60018181548110610226575f80fd5b905f5260205f20015f915054906101000a900473ffffffffffffffffffffffffffffffffffffffff1681565b6002602052805f5260405f205f915090505481565b5f5f61027161029f565b90505f670de0b6b3a764000084836102899190610553565b61029391906105c1565b90508092505050919050565b5f5f7372afaecf99c9d9c8215ff44c77b94b99c28741e890505f8173ffffffffffffffffffffffffffffffffffffffff1663feaf968c6040518163ffffffff1660e01b815260040160a060405180830381865afa158015610302573d5f5f3e3d5ffd5b505050506040513d601f19601f820116820180604052508101906103269190610677565b5050509150506402540be4008161033d9190610553565b9250505090565b5f819050919050565b61035681610344565b82525050565b5f60208201905061036f5f83018461034d565b92915050565b5f5ffd5b61038281610344565b811461038c575f5ffd5b50565b5f8135905061039d81610379565b92915050565b5f602082840312156103b8576103b7610375565b5b5f6103c58482850161038f565b91505092915050565b5f73ffffffffffffffffffffffffffffffffffffffff82169050919050565b5f6103f7826103ce565b9050919050565b610407816103ed565b82525050565b5f6020820190506104205f8301846103fe565b92915050565b61042f816103ed565b8114610439575f5ffd5b50565b5f8135905061044a81610426565b92915050565b5f6020828403121561046557610464610375565b5b5f6104728482850161043c565b91505092915050565b5f82825260208201905092915050565b7f4469646e27742073656e6420656e6f75676820455448000000000000000000005f82015250565b5f6104bf60168361047b565b91506104ca8261048b565b602082019050919050565b5f6020820190508181035f8301526104ec816104b3565b9050919050565b7f4e487b71000000000000000000000000000000000000000000000000000000005f52601160045260245ffd5b5f61052a82610344565b915061053583610344565b925082820190508082111561054d5761054c6104f3565b5b92915050565b5f61055d82610344565b915061056883610344565b925082820261057681610344565b9150828204841483151761058d5761058c6104f3565b5b5092915050565b7f4e487b71000000000000000000000000000000000000000000000000000000005f52601260045260245ffd5b5f6105cb82610344565b91506105d683610344565b9250826105e6576105e5610594565b5b828204905092915050565b5f69ffffffffffffffffffff82169050919050565b61060f816105f1565b8114610619575f5ffd5b50565b5f8151905061062a81610606565b92915050565b5f819050919050565b61064281610630565b811461064c575f5ffd5b50565b5f8151905061065d81610639565b92915050565b5f8151905061067181610379565b92915050565b5f5f5f5f5f60a086880312156106905761068f610375565b5b5f61069d8882890161061c565b95505060206106ae8882890161064f565b94505060406106bf88828901610663565b93505060606106d088828901610663565b92505060806106e18882890161061c565b915050929550929590935056fea2646970667358221220b82b66e4bfe56bee491fe0fb974381c978f42443ac1bf9cd047d13fd715ceccc64736f6c634300081f0033",
					"opcodes": "PUSH1 0x80 PUSH1 0x40 MSTORE PUSH8 0x4563918244F40000 PUSH0 SSTORE CALLVALUE DUP1 ISZERO PUSH1 0x19 JUMPI PUSH0 PUSH0 REVERT JUMPDEST POP PUSH2 0x724 DUP1 PUSH2 0x27 PUSH0 CODECOPY PUSH0 RETURN INVALID PUSH1 0x80 PUSH1 0x40 MSTORE PUSH1 0x4 CALLDATASIZE LT PUSH2 0x49 JUMPI PUSH0 CALLDATALOAD PUSH1 0xE0 SHR DUP1 PUSH4 0x98DE820 EQ PUSH2 0x4D JUMPI DUP1 PUSH4 0x3CCFD60B EQ PUSH2 0x77 JUMPI DUP1 PUSH4 0xB60D4288 EQ PUSH2 0x8D JUMPI DUP1 PUSH4 0xDC0D3DFF EQ PUSH2 0x97 JUMPI DUP1 PUSH4 0xF2420284 EQ PUSH2 0xD3 JUMPI JUMPDEST PUSH0 PUSH0 REVERT JUMPDEST CALLVALUE DUP1 ISZERO PUSH2 0x58 JUMPI PUSH0 PUSH0 REVERT JUMPDEST POP PUSH2 0x61 PUSH2 0x10F JUMP JUMPDEST PUSH1 0x40 MLOAD PUSH2 0x6E SWAP2 SWAP1 PUSH2 0x35C JUMP JUMPDEST PUSH1 0x40 MLOAD DUP1 SWAP2 SUB SWAP1 RETURN JUMPDEST CALLVALUE DUP1 ISZERO PUSH2 0x82 JUMPI PUSH0 PUSH0 REVERT JUMPDEST POP PUSH2 0x8B PUSH2 0x114 JUMP JUMPDEST STOP JUMPDEST PUSH2 0x95 PUSH2 0x116 JUMP JUMPDEST STOP JUMPDEST CALLVALUE DUP1 ISZERO PUSH2 0xA2 JUMPI PUSH0 PUSH0 REVERT JUMPDEST POP PUSH2 0xBD PUSH1 0x4 DUP1 CALLDATASIZE SUB DUP2 ADD SWAP1 PUSH2 0xB8 SWAP2 SWAP1 PUSH2 0x3A3 JUMP JUMPDEST PUSH2 0x217 JUMP JUMPDEST PUSH1 0x40 MLOAD PUSH2 0xCA SWAP2 SWAP1 PUSH2 0x40D JUMP JUMPDEST PUSH1 0x40 MLOAD DUP1 SWAP2 SUB SWAP1 RETURN JUMPDEST CALLVALUE DUP1 ISZERO PUSH2 0xDE JUMPI PUSH0 PUSH0 REVERT JUMPDEST POP PUSH2 0xF9 PUSH1 0x4 DUP1 CALLDATASIZE SUB DUP2 ADD SWAP1 PUSH2 0xF4 SWAP2 SWAP1 PUSH2 0x450 JUMP JUMPDEST PUSH2 0x252 JUMP JUMPDEST PUSH1 0x40 MLOAD PUSH2 0x106 SWAP2 SWAP1 PUSH2 0x35C JUMP JUMPDEST PUSH1 0x40 MLOAD DUP1 SWAP2 SUB SWAP1 RETURN JUMPDEST PUSH0 SLOAD DUP2 JUMP JUMPDEST JUMP JUMPDEST PUSH0 SLOAD PUSH2 0x121 CALLVALUE PUSH2 0x267 JUMP JUMPDEST LT ISZERO PUSH2 0x162 JUMPI PUSH1 0x40 MLOAD PUSH32 0x8C379A000000000000000000000000000000000000000000000000000000000 DUP2 MSTORE PUSH1 0x4 ADD PUSH2 0x159 SWAP1 PUSH2 0x4D5 JUMP JUMPDEST PUSH1 0x40 MLOAD DUP1 SWAP2 SUB SWAP1 REVERT JUMPDEST PUSH1 0x1 CALLER SWAP1 DUP1 PUSH1 0x1 DUP2 SLOAD ADD DUP1 DUP3 SSTORE DUP1 SWAP2 POP POP PUSH1 0x1 SWAP1 SUB SWAP1 PUSH0 MSTORE PUSH1 0x20 PUSH0 KECCAK256 ADD PUSH0 SWAP1 SWAP2 SWAP1 SWAP2 SWAP1 SWAP2 PUSH2 0x100 EXP DUP2 SLOAD DUP2 PUSH20 0xFFFFFFFFFFFFFFFFFFFFFFFFFFFFFFFFFFFFFFFF MUL NOT AND SWAP1 DUP4 PUSH20 0xFFFFFFFFFFFFFFFFFFFFFFFFFFFFFFFFFFFFFFFF AND MUL OR SWAP1 SSTORE POP CALLVALUE PUSH1 0x2 PUSH0 CALLER PUSH20 0xFFFFFFFFFFFFFFFFFFFFFFFFFFFFFFFFFFFFFFFF AND PUSH20 0xFFFFFFFFFFFFFFFFFFFFFFFFFFFFFFFFFFFFFFFF AND DUP2 MSTORE PUSH1 0x20 ADD SWAP1 DUP2 MSTORE PUSH1 0x20 ADD PUSH0 KECCAK256 PUSH0 DUP3 DUP3 SLOAD PUSH2 0x20E SWAP2 SWAP1 PUSH2 0x520 JUMP JUMPDEST SWAP3 POP POP DUP2 SWAP1 SSTORE POP JUMP JUMPDEST PUSH1 0x1 DUP2 DUP2 SLOAD DUP2 LT PUSH2 0x226 JUMPI PUSH0 DUP1 REVERT JUMPDEST SWAP1 PUSH0 MSTORE PUSH1 0x20 PUSH0 KECCAK256 ADD PUSH0 SWAP2 POP SLOAD SWAP1 PUSH2 0x100 EXP SWAP1 DIV PUSH20 0xFFFFFFFFFFFFFFFFFFFFFFFFFFFFFFFFFFFFFFFF AND DUP2 JUMP JUMPDEST PUSH1 0x2 PUSH1 0x20 MSTORE DUP1 PUSH0 MSTORE PUSH1 0x40 PUSH0 KECCAK256 PUSH0 SWAP2 POP SWAP1 POP SLOAD DUP2 JUMP JUMPDEST PUSH0 PUSH0 PUSH2 0x271 PUSH2 0x29F JUMP JUMPDEST SWAP1 POP PUSH0 PUSH8 0xDE0B6B3A7640000 DUP5 DUP4 PUSH2 0x289 SWAP2 SWAP1 PUSH2 0x553 JUMP JUMPDEST PUSH2 0x293 SWAP2 SWAP1 PUSH2 0x5C1 JUMP JUMPDEST SWAP1 POP DUP1 SWAP3 POP POP POP SWAP2 SWAP1 POP JUMP JUMPDEST PUSH0 PUSH0 PUSH20 0x72AFAECF99C9D9C8215FF44C77B94B99C28741E8 SWAP1 POP PUSH0 DUP2 PUSH20 0xFFFFFFFFFFFFFFFFFFFFFFFFFFFFFFFFFFFFFFFF AND PUSH4 0xFEAF968C PUSH1 0x40 MLOAD DUP2 PUSH4 0xFFFFFFFF AND PUSH1 0xE0 SHL DUP2 MSTORE PUSH1 0x4 ADD PUSH1 0xA0 PUSH1 0x40 MLOAD DUP1 DUP4 SUB DUP2 DUP7 GAS STATICCALL ISZERO DUP1 ISZERO PUSH2 0x302 JUMPI RETURNDATASIZE PUSH0 PUSH0 RETURNDATACOPY RETURNDATASIZE PUSH0 REVERT JUMPDEST POP POP POP POP PUSH1 0x40 MLOAD RETURNDATASIZE PUSH1 0x1F NOT PUSH1 0x1F DUP3 ADD AND DUP3 ADD DUP1 PUSH1 0x40 MSTORE POP DUP2 ADD SWAP1 PUSH2 0x326 SWAP2 SWAP1 PUSH2 0x677 JUMP JUMPDEST POP POP POP SWAP2 POP POP PUSH5 0x2540BE400 DUP2 PUSH2 0x33D SWAP2 SWAP1 PUSH2 0x553 JUMP JUMPDEST SWAP3 POP POP POP SWAP1 JUMP JUMPDEST PUSH0 DUP2 SWAP1 POP SWAP2 SWAP1 POP JUMP JUMPDEST PUSH2 0x356 DUP2 PUSH2 0x344 JUMP JUMPDEST DUP3 MSTORE POP POP JUMP JUMPDEST PUSH0 PUSH1 0x20 DUP3 ADD SWAP1 POP PUSH2 0x36F PUSH0 DUP4 ADD DUP5 PUSH2 0x34D JUMP JUMPDEST SWAP3 SWAP2 POP POP JUMP JUMPDEST PUSH0 PUSH0 REVERT JUMPDEST PUSH2 0x382 DUP2 PUSH2 0x344 JUMP JUMPDEST DUP2 EQ PUSH2 0x38C JUMPI PUSH0 PUSH0 REVERT JUMPDEST POP JUMP JUMPDEST PUSH0 DUP2 CALLDATALOAD SWAP1 POP PUSH2 0x39D DUP2 PUSH2 0x379 JUMP JUMPDEST SWAP3 SWAP2 POP POP JUMP JUMPDEST PUSH0 PUSH1 0x20 DUP3 DUP5 SUB SLT ISZERO PUSH2 0x3B8 JUMPI PUSH2 0x3B7 PUSH2 0x375 JUMP JUMPDEST JUMPDEST PUSH0 PUSH2 0x3C5 DUP5 DUP3 DUP6 ADD PUSH2 0x38F JUMP JUMPDEST SWAP2 POP POP SWAP3 SWAP2 POP POP JUMP JUMPDEST PUSH0 PUSH20 0xFFFFFFFFFFFFFFFFFFFFFFFFFFFFFFFFFFFFFFFF DUP3 AND SWAP1 POP SWAP2 SWAP1 POP JUMP JUMPDEST PUSH0 PUSH2 0x3F7 DUP3 PUSH2 0x3CE JUMP JUMPDEST SWAP1 POP SWAP2 SWAP1 POP JUMP JUMPDEST PUSH2 0x407 DUP2 PUSH2 0x3ED JUMP JUMPDEST DUP3 MSTORE POP POP JUMP JUMPDEST PUSH0 PUSH1 0x20 DUP3 ADD SWAP1 POP PUSH2 0x420 PUSH0 DUP4 ADD DUP5 PUSH2 0x3FE JUMP JUMPDEST SWAP3 SWAP2 POP POP JUMP JUMPDEST PUSH2 0x42F DUP2 PUSH2 0x3ED JUMP JUMPDEST DUP2 EQ PUSH2 0x439 JUMPI PUSH0 PUSH0 REVERT JUMPDEST POP JUMP JUMPDEST PUSH0 DUP2 CALLDATALOAD SWAP1 POP PUSH2 0x44A DUP2 PUSH2 0x426 JUMP JUMPDEST SWAP3 SWAP2 POP POP JUMP JUMPDEST PUSH0 PUSH1 0x20 DUP3 DUP5 SUB SLT ISZERO PUSH2 0x465 JUMPI PUSH2 0x464 PUSH2 0x375 JUMP JUMPDEST JUMPDEST PUSH0 PUSH2 0x472 DUP5 DUP3 DUP6 ADD PUSH2 0x43C JUMP JUMPDEST SWAP2 POP POP SWAP3 SWAP2 POP POP JUMP JUMPDEST PUSH0 DUP3 DUP3 MSTORE PUSH1 0x20 DUP3 ADD SWAP1 POP SWAP3 SWAP2 POP POP JUMP JUMPDEST PUSH32 0x4469646E27742073656E6420656E6F7567682045544800000000000000000000 PUSH0 DUP3 ADD MSTORE POP JUMP JUMPDEST PUSH0 PUSH2 0x4BF PUSH1 0x16 DUP4 PUSH2 0x47B JUMP JUMPDEST SWAP2 POP PUSH2 0x4CA DUP3 PUSH2 0x48B JUMP JUMPDEST PUSH1 0x20 DUP3 ADD SWAP1 POP SWAP2 SWAP1 POP JUMP JUMPDEST PUSH0 PUSH1 0x20 DUP3 ADD SWAP1 POP DUP2 DUP2 SUB PUSH0 DUP4 ADD MSTORE PUSH2 0x4EC DUP2 PUSH2 0x4B3 JUMP JUMPDEST SWAP1 POP SWAP2 SWAP1 POP JUMP JUMPDEST PUSH32 0x4E487B7100000000000000000000000000000000000000000000000000000000 PUSH0 MSTORE PUSH1 0x11 PUSH1 0x4 MSTORE PUSH1 0x24 PUSH0 REVERT JUMPDEST PUSH0 PUSH2 0x52A DUP3 PUSH2 0x344 JUMP JUMPDEST SWAP2 POP PUSH2 0x535 DUP4 PUSH2 0x344 JUMP JUMPDEST SWAP3 POP DUP3 DUP3 ADD SWAP1 POP DUP1 DUP3 GT ISZERO PUSH2 0x54D JUMPI PUSH2 0x54C PUSH2 0x4F3 JUMP JUMPDEST JUMPDEST SWAP3 SWAP2 POP POP JUMP JUMPDEST PUSH0 PUSH2 0x55D DUP3 PUSH2 0x344 JUMP JUMPDEST SWAP2 POP PUSH2 0x568 DUP4 PUSH2 0x344 JUMP JUMPDEST SWAP3 POP DUP3 DUP3 MUL PUSH2 0x576 DUP2 PUSH2 0x344 JUMP JUMPDEST SWAP2 POP DUP3 DUP3 DIV DUP5 EQ DUP4 ISZERO OR PUSH2 0x58D JUMPI PUSH2 0x58C PUSH2 0x4F3 JUMP JUMPDEST JUMPDEST POP SWAP3 SWAP2 POP POP JUMP JUMPDEST PUSH32 0x4E487B7100000000000000000000000000000000000000000000000000000000 PUSH0 MSTORE PUSH1 0x12 PUSH1 0x4 MSTORE PUSH1 0x24 PUSH0 REVERT JUMPDEST PUSH0 PUSH2 0x5CB DUP3 PUSH2 0x344 JUMP JUMPDEST SWAP2 POP PUSH2 0x5D6 DUP4 PUSH2 0x344 JUMP JUMPDEST SWAP3 POP DUP3 PUSH2 0x5E6 JUMPI PUSH2 0x5E5 PUSH2 0x594 JUMP JUMPDEST JUMPDEST DUP3 DUP3 DIV SWAP1 POP SWAP3 SWAP2 POP POP JUMP JUMPDEST PUSH0 PUSH10 0xFFFFFFFFFFFFFFFFFFFF DUP3 AND SWAP1 POP SWAP2 SWAP1 POP JUMP JUMPDEST PUSH2 0x60F DUP2 PUSH2 0x5F1 JUMP JUMPDEST DUP2 EQ PUSH2 0x619 JUMPI PUSH0 PUSH0 REVERT JUMPDEST POP JUMP JUMPDEST PUSH0 DUP2 MLOAD SWAP1 POP PUSH2 0x62A DUP2 PUSH2 0x606 JUMP JUMPDEST SWAP3 SWAP2 POP POP JUMP JUMPDEST PUSH0 DUP2 SWAP1 POP SWAP2 SWAP1 POP JUMP JUMPDEST PUSH2 0x642 DUP2 PUSH2 0x630 JUMP JUMPDEST DUP2 EQ PUSH2 0x64C JUMPI PUSH0 PUSH0 REVERT JUMPDEST POP JUMP JUMPDEST PUSH0 DUP2 MLOAD SWAP1 POP PUSH2 0x65D DUP2 PUSH2 0x639 JUMP JUMPDEST SWAP3 SWAP2 POP POP JUMP JUMPDEST PUSH0 DUP2 MLOAD SWAP1 POP PUSH2 0x671 DUP2 PUSH2 0x379 JUMP JUMPDEST SWAP3 SWAP2 POP POP JUMP JUMPDEST PUSH0 PUSH0 PUSH0 PUSH0 PUSH0 PUSH1 0xA0 DUP7 DUP9 SUB SLT ISZERO PUSH2 0x690 JUMPI PUSH2 0x68F PUSH2 0x375 JUMP JUMPDEST JUMPDEST PUSH0 PUSH2 0x69D DUP9 DUP3 DUP10 ADD PUSH2 0x61C JUMP JUMPDEST SWAP6 POP POP PUSH1 0x20 PUSH2 0x6AE DUP9 DUP3 DUP10 ADD PUSH2 0x64F JUMP JUMPDEST SWAP5 POP POP PUSH1 0x40 PUSH2 0x6BF DUP9 DUP3 DUP10 ADD PUSH2 0x663 JUMP JUMPDEST SWAP4 POP POP PUSH1 0x60 PUSH2 0x6D0 DUP9 DUP3 DUP10 ADD PUSH2 0x663 JUMP JUMPDEST SWAP3 POP POP PUSH1 0x80 PUSH2 0x6E1 DUP9 DUP3 DUP10 ADD PUSH2 0x61C JUMP JUMPDEST SWAP2 POP POP SWAP3 SWAP6 POP SWAP3 SWAP6 SWAP1 SWAP4 POP JUMP INVALID LOG2 PUSH5 0x6970667358 0x22 SLT KECCAK256 0xB8 0x2B PUSH7 0xE4BFE56BEE491F RJUMP 0xFB97 NUMBER DUP2 0xC9 PUSH25 0xF42443AC1BF9CD047D13FD715CECCC64736F6C634300081F00 CALLER "
				},
				"gasEstimates": {
					"creation": {
						"codeDepositCost": "365600",
						"executionCost": "22508",
						"totalCost": "388108"
					},
					"external": {
						"fund()": "infinite",
						"funders(uint256)": "4988",
						"listOfFunders(address)": "2868",
						"minimumUsd()": "2402",
						"withdraw()": "143"
					}
				},
				"methodIdentifiers": {
					"fund()": "b60d4288",
					"funders(uint256)": "dc0d3dff",
					"listOfFunders(address)": "f2420284",
					"minimumUsd()": "098de820",
					"withdraw()": "3ccfd60b"
				}
			},
			"storageLayout": {
				"storage": [
					{
						"astId": 55,
						"contract": "contracts/FundMe.sol:FundMe",
						"label": "minimumUsd",
						"offset": 0,
						"slot": "0",
						"type": "t_uint256"
					},
					{
						"astId": 58,
						"contract": "contracts/FundMe.sol:FundMe",
						"label": "funders",
						"offset": 0,
						"slot": "1",
						"type": "t_array(t_address)dyn_storage"
					},
					{
						"astId": 62,
						"contract": "contracts/FundMe.sol:FundMe",
						"label": "listOfFunders",
						"offset": 0,
						"slot": "2",
						"type": "t_mapping(t_address,t_uint256)"
					}
				],
				"types": {
					"t_address": {
						"encoding": "inplace",
						"label": "address",
						"numberOfBytes": "20"
					},
					"t_array(t_address)dyn_storage": {
						"base": "t_address",
						"encoding": "dynamic_array",
						"label": "address[]",
						"numberOfBytes": "32"
					},
					"t_mapping(t_address,t_uint256)": {
						"encoding": "mapping",
						"key": "t_address",
						"label": "mapping(address => uint256)",
						"numberOfBytes": "32",
						"value": "t_uint256"
					},
					"t_uint256": {
						"encoding": "inplace",
						"label": "uint256",
						"numberOfBytes": "32"
					}
				}
			},
			"userdoc": {
				"kind": "user",
				"methods": {},
				"version": 1
			}
		}
	}
}